{
  "contractName": "TodoList",
  "abi": [
    {
      "inputs": [],
      "payable": false,
      "stateMutability": "nonpayable",
      "type": "constructor"
    },
    {
      "anonymous": false,
      "inputs": [
        {
          "indexed": false,
          "internalType": "uint256",
          "name": "id",
          "type": "uint256"
        },
        {
          "indexed": false,
          "internalType": "bool",
          "name": "completed",
          "type": "bool"
        }
      ],
      "name": "TaskCompleted",
      "type": "event"
    },
    {
      "anonymous": false,
      "inputs": [
        {
          "indexed": false,
          "internalType": "uint256",
          "name": "id",
          "type": "uint256"
        },
        {
          "indexed": false,
          "internalType": "string",
          "name": "content",
          "type": "string"
        },
        {
          "indexed": false,
          "internalType": "bool",
          "name": "completed",
          "type": "bool"
        },
        {
          "indexed": false,
          "internalType": "string",
          "name": "owner",
          "type": "string"
        },
        {
          "indexed": false,
          "internalType": "string",
          "name": "ownerAadhar",
          "type": "string"
        },
        {
          "indexed": false,
          "internalType": "string",
          "name": "pincode",
          "type": "string"
        },
        {
          "indexed": false,
          "internalType": "string",
          "name": "schemeName",
          "type": "string"
        },
        {
          "indexed": false,
          "internalType": "address",
          "name": "emp",
          "type": "address"
        }
      ],
      "name": "TaskCreated",
      "type": "event"
    },
    {
      "constant": true,
      "inputs": [],
      "name": "emp",
      "outputs": [
        {
          "internalType": "address",
          "name": "",
          "type": "address"
        }
      ],
      "payable": false,
      "stateMutability": "view",
      "type": "function"
    },
    {
      "constant": true,
      "inputs": [],
      "name": "taskCount",
      "outputs": [
        {
          "internalType": "uint256",
          "name": "",
          "type": "uint256"
        }
      ],
      "payable": false,
      "stateMutability": "view",
      "type": "function"
    },
    {
      "constant": true,
      "inputs": [
        {
          "internalType": "uint256",
          "name": "",
          "type": "uint256"
        }
      ],
      "name": "tasks",
      "outputs": [
        {
          "internalType": "uint256",
          "name": "id",
          "type": "uint256"
        },
        {
          "internalType": "string",
          "name": "content",
          "type": "string"
        },
        {
          "internalType": "bool",
          "name": "completed",
          "type": "bool"
        },
        {
          "internalType": "string",
          "name": "owner",
          "type": "string"
        },
        {
          "internalType": "string",
          "name": "ownerAadhar",
          "type": "string"
        },
        {
          "internalType": "string",
          "name": "pincode",
          "type": "string"
        },
        {
          "internalType": "string",
          "name": "schemeName",
          "type": "string"
        },
        {
          "internalType": "address",
          "name": "emp",
          "type": "address"
        }
      ],
      "payable": false,
      "stateMutability": "view",
      "type": "function"
    },
    {
      "constant": false,
      "inputs": [
        {
          "internalType": "string",
          "name": "_plotNum",
          "type": "string"
        },
        {
          "internalType": "string",
          "name": "_owner",
          "type": "string"
        },
        {
          "internalType": "string",
          "name": "_ownerAadhar",
          "type": "string"
        },
        {
          "internalType": "string",
          "name": "_pincode",
          "type": "string"
        },
        {
          "internalType": "string",
          "name": "_schemeName",
          "type": "string"
        }
      ],
      "name": "createTask",
      "outputs": [],
      "payable": false,
      "stateMutability": "nonpayable",
      "type": "function"
    },
    {
      "constant": false,
      "inputs": [
        {
          "internalType": "uint256",
          "name": "taskCount",
          "type": "uint256"
        },
        {
          "internalType": "string",
          "name": "_plotNum",
          "type": "string"
        },
        {
          "internalType": "string",
          "name": "_owner",
          "type": "string"
        },
        {
          "internalType": "string",
          "name": "_ownerAadhar",
          "type": "string"
        },
        {
          "internalType": "string",
          "name": "_pincode",
          "type": "string"
        },
        {
          "internalType": "string",
          "name": "_schemeName",
          "type": "string"
        }
      ],
      "name": "modifyTask",
      "outputs": [],
      "payable": false,
      "stateMutability": "nonpayable",
      "type": "function"
    },
    {
      "constant": false,
      "inputs": [
        {
          "internalType": "uint256",
          "name": "_id",
          "type": "uint256"
        }
      ],
      "name": "toggleCompleted",
      "outputs": [],
      "payable": false,
      "stateMutability": "nonpayable",
      "type": "function"
    }
  ],
  "bytecode": "0x608060405260008055600180546001600160a01b0319163317905534801561002657600080fd5b506118a7806100366000396000f3fe608060405234801561001057600080fd5b50600436106100625760003560e01c806314c02d84146100675780632b99d67114610321578063455f5024146105e05780638d977672146105fd578063b34fad4114610855578063b6cb58a514610879575b600080fd5b61031f600480360360a081101561007d57600080fd5b810190602081018135600160201b81111561009757600080fd5b8201836020820111156100a957600080fd5b803590602001918460018302840111600160201b831117156100ca57600080fd5b91908080601f0160208091040260200160405190810160405280939291908181526020018383808284376000920191909152509295949360208101935035915050600160201b81111561011c57600080fd5b82018360208201111561012e57600080fd5b803590602001918460018302840111600160201b8311171561014f57600080fd5b91908080601f0160208091040260200160405190810160405280939291908181526020018383808284376000920191909152509295949360208101935035915050600160201b8111156101a157600080fd5b8201836020820111156101b357600080fd5b803590602001918460018302840111600160201b831117156101d457600080fd5b91908080601f0160208091040260200160405190810160405280939291908181526020018383808284376000920191909152509295949360208101935035915050600160201b81111561022657600080fd5b82018360208201111561023857600080fd5b803590602001918460018302840111600160201b8311171561025957600080fd5b91908080601f0160208091040260200160405190810160405280939291908181526020018383808284376000920191909152509295949360208101935035915050600160201b8111156102ab57600080fd5b8201836020820111156102bd57600080fd5b803590602001918460018302840111600160201b831117156102de57600080fd5b91908080601f016020809104026020016040519081016040528093929190818152602001838380828437600092019190915250929550610893945050505050565b005b61031f600480360360c081101561033757600080fd5b81359190810190604081016020820135600160201b81111561035857600080fd5b82018360208201111561036a57600080fd5b803590602001918460018302840111600160201b8311171561038b57600080fd5b91908080601f0160208091040260200160405190810160405280939291908181526020018383808284376000920191909152509295949360208101935035915050600160201b8111156103dd57600080fd5b8201836020820111156103ef57600080fd5b803590602001918460018302840111600160201b8311171561041057600080fd5b91908080601f0160208091040260200160405190810160405280939291908181526020018383808284376000920191909152509295949360208101935035915050600160201b81111561046257600080fd5b82018360208201111561047457600080fd5b803590602001918460018302840111600160201b8311171561049557600080fd5b91908080601f0160208091040260200160405190810160405280939291908181526020018383808284376000920191909152509295949360208101935035915050600160201b8111156104e757600080fd5b8201836020820111156104f957600080fd5b803590602001918460018302840111600160201b8311171561051a57600080fd5b91908080601f0160208091040260200160405190810160405280939291908181526020018383808284376000920191909152509295949360208101935035915050600160201b81111561056c57600080fd5b82018360208201111561057e57600080fd5b803590602001918460018302840111600160201b8311171561059f57600080fd5b91908080601f016020809104026020016040519081016040528093929190818152602001838380828437600092019190915250929550610c57945050505050565b61031f600480360360208110156105f657600080fd5b5035611015565b61061a6004803603602081101561061357600080fd5b5035611472565b60405180898152602001806020018815151515815260200180602001806020018060200180602001876001600160a01b03166001600160a01b0316815260200186810386528d818151815260200191508051906020019080838360005b8381101561068f578181015183820152602001610677565b50505050905090810190601f1680156106bc5780820380516001836020036101000a031916815260200191505b5086810385528b5181528b516020918201918d019080838360005b838110156106ef5781810151838201526020016106d7565b50505050905090810190601f16801561071c5780820380516001836020036101000a031916815260200191505b5086810384528a5181528a516020918201918c019080838360005b8381101561074f578181015183820152602001610737565b50505050905090810190601f16801561077c5780820380516001836020036101000a031916815260200191505b5086810383528951815289516020918201918b019080838360005b838110156107af578181015183820152602001610797565b50505050905090810190601f1680156107dc5780820380516001836020036101000a031916815260200191505b5086810382528851815288516020918201918a019080838360005b8381101561080f5781810151838201526020016107f7565b50505050905090810190601f16801561083c5780820380516001836020036101000a031916815260200191505b509d505050505050505050505050505060405180910390f35b61085d611772565b604080516001600160a01b039092168252519081900360200190f35b610881611781565b60408051918252519081900360200190f35b60008054600190810180835581546001600160a01b0319163317808355604080516101008101825283815260208082018c8152828401889052606083018c9052608083018b905260a083018a905260c083018990526001600160a01b039490941660e08301529386526002845294208451815590518051919361091c9390850192910190611787565b50604082015160028201805460ff191691151591909117905560608201518051610950916003840191602090910190611787565b506080820151805161096c916004840191602090910190611787565b5060a08201518051610988916005840191602090910190611787565b5060c082015180516109a4916006840191602090910190611787565b5060e08201518160070160006101000a8154816001600160a01b0302191690836001600160a01b031602179055509050507f14eec55e045f06ce054a59b1487b92606d729aab61663e7166236aa2ab99be2760005486600087878787600160009054906101000a90046001600160a01b031660405180898152602001806020018815151515815260200180602001806020018060200180602001876001600160a01b03166001600160a01b0316815260200186810386528d818151815260200191508051906020019080838360005b83811015610a8b578181015183820152602001610a73565b50505050905090810190601f168015610ab85780820380516001836020036101000a031916815260200191505b5086810385528b5181528b516020918201918d019080838360005b83811015610aeb578181015183820152602001610ad3565b50505050905090810190601f168015610b185780820380516001836020036101000a031916815260200191505b5086810384528a5181528a516020918201918c019080838360005b83811015610b4b578181015183820152602001610b33565b50505050905090810190601f168015610b785780820380516001836020036101000a031916815260200191505b5086810383528951815289516020918201918b019080838360005b83811015610bab578181015183820152602001610b93565b50505050905090810190601f168015610bd85780820380516001836020036101000a031916815260200191505b5086810382528851815288516020918201918a019080838360005b83811015610c0b578181015183820152602001610bf3565b50505050905090810190601f168015610c385780820380516001836020036101000a031916815260200191505b509d505050505050505050505050505060405180910390a15050505050565b600180546001600160a01b0319163317808255604080516101008101825289815260208082018a81526000838501819052606084018b9052608084018a905260a0840189905260c084018890526001600160a01b039590951660e08401528b85526002825292909320815181559151805191949293610cdb93850192910190611787565b50604082015160028201805460ff191691151591909117905560608201518051610d0f916003840191602090910190611787565b5060808201518051610d2b916004840191602090910190611787565b5060a08201518051610d47916005840191602090910190611787565b5060c08201518051610d63916006840191602090910190611787565b5060e08201518160070160006101000a8154816001600160a01b0302191690836001600160a01b031602179055509050507f14eec55e045f06ce054a59b1487b92606d729aab61663e7166236aa2ab99be278686600087878787600160009054906101000a90046001600160a01b031660405180898152602001806020018815151515815260200180602001806020018060200180602001876001600160a01b03166001600160a01b0316815260200186810386528d818151815260200191508051906020019080838360005b83811015610e48578181015183820152602001610e30565b50505050905090810190601f168015610e755780820380516001836020036101000a031916815260200191505b5086810385528b5181528b516020918201918d019080838360005b83811015610ea8578181015183820152602001610e90565b50505050905090810190601f168015610ed55780820380516001836020036101000a031916815260200191505b5086810384528a5181528a516020918201918c019080838360005b83811015610f08578181015183820152602001610ef0565b50505050905090810190601f168015610f355780820380516001836020036101000a031916815260200191505b5086810383528951815289516020918201918b019080838360005b83811015610f68578181015183820152602001610f50565b50505050905090810190601f168015610f955780820380516001836020036101000a031916815260200191505b5086810382528851815288516020918201918a019080838360005b83811015610fc8578181015183820152602001610fb0565b50505050905090810190601f168015610ff55780820380516001836020036101000a031916815260200191505b509d505050505050505050505050505060405180910390a1505050505050565b61101d611805565b6000828152600260208181526040928390208351610100808201865282548252600180840180548851928116159093026000190190921695909504601f810185900485028601850190965285855290949193858401939092908301828280156110c75780601f1061109c576101008083540402835291602001916110c7565b820191906000526020600020905b8154815290600101906020018083116110aa57829003601f168201915b505050918352505060028281015460ff16151560208084019190915260038401805460408051601f6000196001851615610100020190931695909504918201849004840285018401815281855290940193909183018282801561116b5780601f106111405761010080835404028352916020019161116b565b820191906000526020600020905b81548152906001019060200180831161114e57829003601f168201915b505050918352505060048201805460408051602060026001851615610100026000190190941693909304601f81018490048402820184019092528181529382019392918301828280156111ff5780601f106111d4576101008083540402835291602001916111ff565b820191906000526020600020905b8154815290600101906020018083116111e257829003601f168201915b505050918352505060058201805460408051602060026001851615610100026000190190941693909304601f81018490048402820184019092528181529382019392918301828280156112935780601f1061126857610100808354040283529160200191611293565b820191906000526020600020905b81548152906001019060200180831161127657829003601f168201915b505050918352505060068201805460408051602060026001851615610100026000190190941693909304601f81018490048402820184019092528181529382019392918301828280156113275780601f106112fc57610100808354040283529160200191611327565b820191906000526020600020905b81548152906001019060200180831161130a57829003601f168201915b5050509183525050600791909101546001600160a01b03166020918201526040808301805115905260008581526002835220825181558282015180519394508493919261137c92600185019290910190611787565b50604082015160028201805460ff1916911515919091179055606082015180516113b0916003840191602090910190611787565b50608082015180516113cc916004840191602090910190611787565b5060a082015180516113e8916005840191602090910190611787565b5060c08201518051611404916006840191602090910190611787565b5060e09190910151600790910180546001600160a01b0319166001600160a01b039092169190911790556040818101518151848152901515602082015281517fe21fa966ca5cd02748c0752352d18c48165e61cb55b4c29cccf924b5a95fcff1929181900390910190a15050565b60026020818152600092835260409283902080546001808301805487519281161561010002600019011695909504601f810185900485028201850190965285815290949193909290919083018282801561150d5780601f106114e25761010080835404028352916020019161150d565b820191906000526020600020905b8154815290600101906020018083116114f057829003601f168201915b505050506002838101546003850180546040805160206101006001851615026000190190931695909504601f8101839004830286018301909152808552959660ff909316959294509091908301828280156115a95780601f1061157e576101008083540402835291602001916115a9565b820191906000526020600020905b81548152906001019060200180831161158c57829003601f168201915b5050505060048301805460408051602060026001851615610100026000190190941693909304601f81018490048402820184019092528181529495949350908301828280156116395780601f1061160e57610100808354040283529160200191611639565b820191906000526020600020905b81548152906001019060200180831161161c57829003601f168201915b5050505060058301805460408051602060026001851615610100026000190190941693909304601f81018490048402820184019092528181529495949350908301828280156116c95780601f1061169e576101008083540402835291602001916116c9565b820191906000526020600020905b8154815290600101906020018083116116ac57829003601f168201915b5050505060068301805460408051602060026001851615610100026000190190941693909304601f81018490048402820184019092528181529495949350908301828280156117595780601f1061172e57610100808354040283529160200191611759565b820191906000526020600020905b81548152906001019060200180831161173c57829003601f168201915b505050600790930154919250506001600160a01b031688565b6001546001600160a01b031681565b60005481565b828054600181600116156101000203166002900490600052602060002090601f016020900481019282601f106117c857805160ff19168380011785556117f5565b828001600101855582156117f5579182015b828111156117f55782518255916020019190600101906117da565b50611801929150611855565b5090565b60405180610100016040528060008152602001606081526020016000151581526020016060815260200160608152602001606081526020016060815260200160006001600160a01b031681525090565b61186f91905b80821115611801576000815560010161185b565b9056fea265627a7a723158201f7a9c3c74a11c46b3c0713822a70623a98b9746f6351a8e0c200b1d20faf9a164736f6c634300050c0032",
  "source": "pragma solidity ^0.5.0;\n\ncontract TodoList {\n  uint public taskCount = 0;\n  address public emp = msg.sender;\n\n  struct Task {\n    uint id;\n    string content;\n    bool completed;\n    string owner;\n    string ownerAadhar;\n    string pincode;\n    string schemeName;\n    address emp;\n  }\n\n  mapping(uint => Task) public tasks;\n\n  event TaskCreated(\n    uint id,\n    string content,\n    bool completed,\n    string owner,\n    string ownerAadhar,\n    string pincode,\n    string schemeName,\n    address emp\n  );\n\n  event TaskCompleted(\n    uint id,\n    bool completed\n  );\n\n  constructor() public {\n    //createTask(\"123\",\"Ramesh K Suresh\",\"1234567890\",\"560006\");\n  }\n\n  function createTask(string memory _plotNum, string memory _owner, string memory _ownerAadhar, string memory _pincode, string memory _schemeName) public {\n    taskCount ++;\n    emp = msg.sender;\n    //address emp = msg.sender;\n    tasks[taskCount] = Task(taskCount, _plotNum, false, _owner, _ownerAadhar, _pincode, _schemeName,emp);\n    emit TaskCreated(taskCount, _plotNum, false, _owner, _ownerAadhar, _pincode, _schemeName,emp);\n  }\n\n  function modifyTask(uint taskCount, string memory _plotNum, string memory _owner, string memory _ownerAadhar, string memory _pincode, string memory _schemeName) public {\n    emp = msg.sender;\n    tasks[taskCount] = Task(taskCount, _plotNum, false, _owner, _ownerAadhar, _pincode, _schemeName,emp);\n    emit TaskCreated(taskCount, _plotNum, false, _owner, _ownerAadhar, _pincode, _schemeName,emp);\n  }\n\n  function toggleCompleted(uint _id) public {\n    Task memory _task = tasks[_id];\n    _task.completed = !_task.completed;\n    tasks[_id] = _task;\n    emit TaskCompleted(_id, _task.completed);\n  }\n\n}\n",
  "sourcePath": "C:/Users/Srujan Deshpande/Desktop/merge6/sf_final/contracts/TodoList.sol",
  "compiler": {
    "name": "solc",
    "version": "0.5.12+commit.7709ece9.Emscripten.clang"
  },
  "schemaVersion": "3.0.19",
  "updatedAt": "2020-02-08T04:37:21.484Z",
  "networkType": "ethereum",
  "devdoc": {
    "methods": {}
  },
  "userdoc": {
    "methods": {}
  }
}