{
  "contractName": "TodoList",
  "abi": [
    {
      "inputs": [],
      "payable": false,
      "stateMutability": "nonpayable",
      "type": "constructor"
    },
    {
      "anonymous": false,
      "inputs": [
        {
          "indexed": false,
          "internalType": "uint256",
          "name": "id",
          "type": "uint256"
        },
        {
          "indexed": false,
          "internalType": "bool",
          "name": "completed",
          "type": "bool"
        }
      ],
      "name": "TaskCompleted",
      "type": "event"
    },
    {
      "anonymous": false,
      "inputs": [
        {
          "indexed": false,
          "internalType": "uint256",
          "name": "id",
          "type": "uint256"
        },
        {
          "indexed": false,
          "internalType": "string",
          "name": "content",
          "type": "string"
        },
        {
          "indexed": false,
          "internalType": "bool",
          "name": "completed",
          "type": "bool"
        },
        {
          "indexed": false,
          "internalType": "string",
          "name": "owner",
          "type": "string"
        },
        {
          "indexed": false,
          "internalType": "string",
          "name": "ownerAadhar",
          "type": "string"
        },
        {
          "indexed": false,
          "internalType": "string",
          "name": "pincode",
          "type": "string"
        }
      ],
      "name": "TaskCreated",
      "type": "event"
    },
    {
      "constant": true,
      "inputs": [],
      "name": "taskCount",
      "outputs": [
        {
          "internalType": "uint256",
          "name": "",
          "type": "uint256"
        }
      ],
      "payable": false,
      "stateMutability": "view",
      "type": "function"
    },
    {
      "constant": true,
      "inputs": [
        {
          "internalType": "uint256",
          "name": "",
          "type": "uint256"
        }
      ],
      "name": "tasks",
      "outputs": [
        {
          "internalType": "uint256",
          "name": "id",
          "type": "uint256"
        },
        {
          "internalType": "string",
          "name": "content",
          "type": "string"
        },
        {
          "internalType": "bool",
          "name": "completed",
          "type": "bool"
        },
        {
          "internalType": "string",
          "name": "owner",
          "type": "string"
        },
        {
          "internalType": "string",
          "name": "ownerAadhar",
          "type": "string"
        },
        {
          "internalType": "string",
          "name": "pincode",
          "type": "string"
        }
      ],
      "payable": false,
      "stateMutability": "view",
      "type": "function"
    },
    {
      "constant": false,
      "inputs": [
        {
          "internalType": "string",
          "name": "_plotNum",
          "type": "string"
        },
        {
          "internalType": "string",
          "name": "_owner",
          "type": "string"
        },
        {
          "internalType": "string",
          "name": "_ownerAadhar",
          "type": "string"
        },
        {
          "internalType": "string",
          "name": "_pincode",
          "type": "string"
        }
      ],
      "name": "createTask",
      "outputs": [],
      "payable": false,
      "stateMutability": "nonpayable",
      "type": "function"
    },
    {
      "constant": false,
      "inputs": [
        {
          "internalType": "uint256",
          "name": "taskCount",
          "type": "uint256"
        },
        {
          "internalType": "string",
          "name": "_plotNum",
          "type": "string"
        },
        {
          "internalType": "string",
          "name": "_owner",
          "type": "string"
        },
        {
          "internalType": "string",
          "name": "_ownerAadhar",
          "type": "string"
        },
        {
          "internalType": "string",
          "name": "_pincode",
          "type": "string"
        }
      ],
      "name": "modifyTask",
      "outputs": [],
      "payable": false,
      "stateMutability": "nonpayable",
      "type": "function"
    },
    {
      "constant": false,
      "inputs": [
        {
          "internalType": "uint256",
          "name": "_id",
          "type": "uint256"
        }
      ],
      "name": "toggleCompleted",
      "outputs": [],
      "payable": false,
      "stateMutability": "nonpayable",
      "type": "function"
    }
  ],
  "bytecode": "0x6080604052600080553480156200001557600080fd5b50620000fe6040518060400160405280600381526020017f31323300000000000000000000000000000000000000000000000000000000008152506040518060400160405280600f81526020017f52616d657368204b2053757265736800000000000000000000000000000000008152506040518060400160405280600a81526020017f31323334353637383930000000000000000000000000000000000000000000008152506040518060400160405280600681526020017f35363030303600000000000000000000000000000000000000000000000000008152506200010460201b60201c565b6200047a565b6000805460019081018083556040805160c08101825282815260208082018a8152828401879052606083018a90526080830189905260a0830188905293865284815291909420845181559151805192936200016893908501929190910190620003d5565b50604082015160028201805460ff1916911515919091179055606082015180516200019e916003840191602090910190620003d5565b5060808201518051620001bc916004840191602090910190620003d5565b5060a08201518051620001da916005840191602090910190620003d5565b509050507f61e0e3fadfff8b72bc036e57db6902b9bf2e52e6c623828693d4634c5e8cc47360005485600086868660405180878152602001806020018615151515815260200180602001806020018060200185810385528a818151815260200191508051906020019080838360005b838110156200026357818101518382015260200162000249565b50505050905090810190601f168015620002915780820380516001836020036101000a031916815260200191505b5085810384528851815288516020918201918a019080838360005b83811015620002c6578181015183820152602001620002ac565b50505050905090810190601f168015620002f45780820380516001836020036101000a031916815260200191505b50858103835287518152875160209182019189019080838360005b83811015620003295781810151838201526020016200030f565b50505050905090810190601f168015620003575780820380516001836020036101000a031916815260200191505b50858103825286518152865160209182019188019080838360005b838110156200038c57818101518382015260200162000372565b50505050905090810190601f168015620003ba5780820380516001836020036101000a031916815260200191505b509a505050505050505050505060405180910390a150505050565b828054600181600116156101000203166002900490600052602060002090601f016020900481019282601f106200041857805160ff191683800117855562000448565b8280016001018555821562000448579182015b82811115620004485782518255916020019190600101906200042b565b50620004569291506200045a565b5090565b6200047791905b8082111562000456576000815560010162000461565b90565b611331806200048a6000396000f3fe608060405234801561001057600080fd5b50600436106100575760003560e01c8063455f50241461005c57806372a9f8191461007b5780638d977672146102ae578063b6cb58a514610487578063d677d268146104a1575b600080fd5b6100796004803603602081101561007257600080fd5b50356106db565b005b6100796004803603608081101561009157600080fd5b810190602081018135600160201b8111156100ab57600080fd5b8201836020820111156100bd57600080fd5b803590602001918460018302840111600160201b831117156100de57600080fd5b91908080601f0160208091040260200160405190810160405280939291908181526020018383808284376000920191909152509295949360208101935035915050600160201b81111561013057600080fd5b82018360208201111561014257600080fd5b803590602001918460018302840111600160201b8311171561016357600080fd5b91908080601f0160208091040260200160405190810160405280939291908181526020018383808284376000920191909152509295949360208101935035915050600160201b8111156101b557600080fd5b8201836020820111156101c757600080fd5b803590602001918460018302840111600160201b831117156101e857600080fd5b91908080601f0160208091040260200160405190810160405280939291908181526020018383808284376000920191909152509295949360208101935035915050600160201b81111561023a57600080fd5b82018360208201111561024c57600080fd5b803590602001918460018302840111600160201b8311171561026d57600080fd5b91908080601f016020809104026020016040519081016040528093929190818152602001838380828437600092019190915250929550610a4f945050505050565b6102cb600480360360208110156102c457600080fd5b5035610d0c565b60405180878152602001806020018615151515815260200180602001806020018060200185810385528a818151815260200191508051906020019080838360005b8381101561032457818101518382015260200161030c565b50505050905090810190601f1680156103515780820380516001836020036101000a031916815260200191505b5085810384528851815288516020918201918a019080838360005b8381101561038457818101518382015260200161036c565b50505050905090810190601f1680156103b15780820380516001836020036101000a031916815260200191505b50858103835287518152875160209182019189019080838360005b838110156103e45781810151838201526020016103cc565b50505050905090810190601f1680156104115780820380516001836020036101000a031916815260200191505b50858103825286518152865160209182019188019080838360005b8381101561044457818101518382015260200161042c565b50505050905090810190601f1680156104715780820380516001836020036101000a031916815260200191505b509a505050505050505050505060405180910390f35b61048f610f6e565b60408051918252519081900360200190f35b610079600480360360a08110156104b757600080fd5b81359190810190604081016020820135600160201b8111156104d857600080fd5b8201836020820111156104ea57600080fd5b803590602001918460018302840111600160201b8311171561050b57600080fd5b91908080601f0160208091040260200160405190810160405280939291908181526020018383808284376000920191909152509295949360208101935035915050600160201b81111561055d57600080fd5b82018360208201111561056f57600080fd5b803590602001918460018302840111600160201b8311171561059057600080fd5b91908080601f0160208091040260200160405190810160405280939291908181526020018383808284376000920191909152509295949360208101935035915050600160201b8111156105e257600080fd5b8201836020820111156105f457600080fd5b803590602001918460018302840111600160201b8311171561061557600080fd5b91908080601f0160208091040260200160405190810160405280939291908181526020018383808284376000920191909152509295949360208101935035915050600160201b81111561066757600080fd5b82018360208201111561067957600080fd5b803590602001918460018302840111600160201b8311171561069a57600080fd5b91908080601f016020809104026020016040519081016040528093929190818152602001838380828437600092019190915250929550610f74945050505050565b6106e3611229565b600082815260016020818152604092839020835160c0810185528154815281840180548651600296821615610100026000190190911695909504601f8101859004850286018501909652858552909491938584019390929083018282801561078c5780601f106107615761010080835404028352916020019161078c565b820191906000526020600020905b81548152906001019060200180831161076f57829003601f168201915b505050918352505060028281015460ff16151560208084019190915260038401805460408051601f600019600185161561010002019093169590950491820184900484028501840181528185529094019390918301828280156108305780601f1061080557610100808354040283529160200191610830565b820191906000526020600020905b81548152906001019060200180831161081357829003601f168201915b505050918352505060048201805460408051602060026001851615610100026000190190941693909304601f81018490048402820184019092528181529382019392918301828280156108c45780601f10610899576101008083540402835291602001916108c4565b820191906000526020600020905b8154815290600101906020018083116108a757829003601f168201915b505050918352505060058201805460408051602060026001851615610100026000190190941693909304601f81018490048402820184019092528181529382019392918301828280156109585780601f1061092d57610100808354040283529160200191610958565b820191906000526020600020905b81548152906001019060200180831161093b57829003601f168201915b505050919092525050506040808201805115905260008481526001602081815292909120835181558284015180519495508594919361099c93850192910190611261565b50604082015160028201805460ff1916911515919091179055606082015180516109d0916003840191602090910190611261565b50608082015180516109ec916004840191602090910190611261565b5060a08201518051610a08916005840191602090910190611261565b5050506040808201518151848152901515602082015281517fe21fa966ca5cd02748c0752352d18c48165e61cb55b4c29cccf924b5a95fcff1929181900390910190a15050565b6000805460019081018083556040805160c08101825282815260208082018a8152828401879052606083018a90526080830189905260a083018890529386528481529190942084518155915180519293610ab193908501929190910190611261565b50604082015160028201805460ff191691151591909117905560608201518051610ae5916003840191602090910190611261565b5060808201518051610b01916004840191602090910190611261565b5060a08201518051610b1d916005840191602090910190611261565b509050507f61e0e3fadfff8b72bc036e57db6902b9bf2e52e6c623828693d4634c5e8cc47360005485600086868660405180878152602001806020018615151515815260200180602001806020018060200185810385528a818151815260200191508051906020019080838360005b83811015610ba4578181015183820152602001610b8c565b50505050905090810190601f168015610bd15780820380516001836020036101000a031916815260200191505b5085810384528851815288516020918201918a019080838360005b83811015610c04578181015183820152602001610bec565b50505050905090810190601f168015610c315780820380516001836020036101000a031916815260200191505b50858103835287518152875160209182019189019080838360005b83811015610c64578181015183820152602001610c4c565b50505050905090810190601f168015610c915780820380516001836020036101000a031916815260200191505b50858103825286518152865160209182019188019080838360005b83811015610cc4578181015183820152602001610cac565b50505050905090810190601f168015610cf15780820380516001836020036101000a031916815260200191505b509a505050505050505050505060405180910390a150505050565b600160208181526000928352604092839020805481840180548651600296821615610100026000190190911695909504601f81018590048502860185019096528585529094919392909190830182828015610da85780601f10610d7d57610100808354040283529160200191610da8565b820191906000526020600020905b815481529060010190602001808311610d8b57829003601f168201915b505050506002838101546003850180546040805160206101006001851615026000190190931695909504601f8101839004830286018301909152808552959660ff90931695929450909190830182828015610e445780601f10610e1957610100808354040283529160200191610e44565b820191906000526020600020905b815481529060010190602001808311610e2757829003601f168201915b5050505060048301805460408051602060026001851615610100026000190190941693909304601f8101849004840282018401909252818152949594935090830182828015610ed45780601f10610ea957610100808354040283529160200191610ed4565b820191906000526020600020905b815481529060010190602001808311610eb757829003601f168201915b5050505060058301805460408051602060026001851615610100026000190190941693909304601f8101849004840282018401909252818152949594935090830182828015610f645780601f10610f3957610100808354040283529160200191610f64565b820191906000526020600020905b815481529060010190602001808311610f4757829003601f168201915b5050505050905086565b60005481565b6040805160c08101825286815260208082018781526000838501819052606084018890526080840187905260a084018690528981526001808452949020835181559051805193949193610fcf93928501929190910190611261565b50604082015160028201805460ff191691151591909117905560608201518051611003916003840191602090910190611261565b506080820151805161101f916004840191602090910190611261565b5060a0820151805161103b916005840191602090910190611261565b509050507f61e0e3fadfff8b72bc036e57db6902b9bf2e52e6c623828693d4634c5e8cc4738585600086868660405180878152602001806020018615151515815260200180602001806020018060200185810385528a818151815260200191508051906020019080838360005b838110156110c05781810151838201526020016110a8565b50505050905090810190601f1680156110ed5780820380516001836020036101000a031916815260200191505b5085810384528851815288516020918201918a019080838360005b83811015611120578181015183820152602001611108565b50505050905090810190601f16801561114d5780820380516001836020036101000a031916815260200191505b50858103835287518152875160209182019189019080838360005b83811015611180578181015183820152602001611168565b50505050905090810190601f1680156111ad5780820380516001836020036101000a031916815260200191505b50858103825286518152865160209182019188019080838360005b838110156111e05781810151838201526020016111c8565b50505050905090810190601f16801561120d5780820380516001836020036101000a031916815260200191505b509a505050505050505050505060405180910390a15050505050565b6040518060c0016040528060008152602001606081526020016000151581526020016060815260200160608152602001606081525090565b828054600181600116156101000203166002900490600052602060002090601f016020900481019282601f106112a257805160ff19168380011785556112cf565b828001600101855582156112cf579182015b828111156112cf5782518255916020019190600101906112b4565b506112db9291506112df565b5090565b6112f991905b808211156112db57600081556001016112e5565b9056fea265627a7a7231582028d3bcec9196504a6e1db656b2bb77ec6ce314a56c2f2e9c71b83ca2595da7a164736f6c634300050c0032",
  "source": "pragma solidity ^0.5.0;\r\n\r\ncontract TodoList {\r\n  uint public taskCount = 0;\r\n\r\n  struct Task {\r\n    uint id;\r\n    string content;\r\n    bool completed;\r\n    string owner;\r\n    string ownerAadhar;\r\n    string pincode;\r\n  }\r\n\r\n  mapping(uint => Task) public tasks;\r\n\r\n  event TaskCreated(\r\n    uint id,\r\n    string content,\r\n    bool completed,\r\n    string owner,\r\n    string ownerAadhar,\r\n    string pincode\r\n  );\r\n\r\n  event TaskCompleted(\r\n    uint id,\r\n    bool completed\r\n  );\r\n\r\n  constructor() public {\r\n    createTask(\"123\",\"Ramesh K Suresh\",\"1234567890\",\"560006\");\r\n  }\r\n\r\n  function createTask(string memory _plotNum, string memory _owner, string memory _ownerAadhar, string memory _pincode) public {\r\n    taskCount ++;\r\n    tasks[taskCount] = Task(taskCount, _plotNum, false, _owner, _ownerAadhar, _pincode);\r\n    emit TaskCreated(taskCount, _plotNum, false, _owner, _ownerAadhar, _pincode);\r\n  }\r\n\r\n  function modifyTask(uint taskCount, string memory _plotNum, string memory _owner, string memory _ownerAadhar, string memory _pincode) public {\r\n    tasks[taskCount] = Task(taskCount, _plotNum, false, _owner, _ownerAadhar, _pincode);\r\n    emit TaskCreated(taskCount, _plotNum, false, _owner, _ownerAadhar, _pincode);\r\n  }\r\n\r\n  function toggleCompleted(uint _id) public {\r\n    Task memory _task = tasks[_id];\r\n    _task.completed = !_task.completed;\r\n    tasks[_id] = _task;\r\n    emit TaskCompleted(_id, _task.completed);\r\n  }\r\n\r\n}\r\n",
  "sourcePath": "C:/Users/Srujan Deshpande/Desktop/Klashning/Blockchain/sih_farmer/contracts/TodoList.sol",
  "compiler": {
    "name": "solc",
    "version": "0.5.12+commit.7709ece9.Emscripten.clang"
  },
  "schemaVersion": "3.0.19",
  "updatedAt": "2020-02-06T08:20:50.569Z",
  "networkType": "ethereum",
  "devdoc": {
    "methods": {}
  },
  "userdoc": {
    "methods": {}
  }
}