{
  "contractName": "TodoList",
  "abi": [
    {
      "inputs": [],
      "payable": false,
      "stateMutability": "nonpayable",
      "type": "constructor"
    },
    {
      "anonymous": false,
      "inputs": [
        {
          "indexed": false,
          "internalType": "uint256",
          "name": "id",
          "type": "uint256"
        },
        {
          "indexed": false,
          "internalType": "bool",
          "name": "completed",
          "type": "bool"
        }
      ],
      "name": "TaskCompleted",
      "type": "event"
    },
    {
      "anonymous": false,
      "inputs": [
        {
          "indexed": false,
          "internalType": "uint256",
          "name": "id",
          "type": "uint256"
        },
        {
          "indexed": false,
          "internalType": "string",
          "name": "content",
          "type": "string"
        },
        {
          "indexed": false,
          "internalType": "bool",
          "name": "completed",
          "type": "bool"
        }
      ],
      "name": "TaskCreated",
      "type": "event"
    },
    {
      "constant": true,
      "inputs": [],
      "name": "taskCount",
      "outputs": [
        {
          "internalType": "uint256",
          "name": "",
          "type": "uint256"
        }
      ],
      "payable": false,
      "stateMutability": "view",
      "type": "function"
    },
    {
      "constant": true,
      "inputs": [
        {
          "internalType": "uint256",
          "name": "",
          "type": "uint256"
        }
      ],
      "name": "tasks",
      "outputs": [
        {
          "internalType": "uint256",
          "name": "id",
          "type": "uint256"
        },
        {
          "internalType": "string",
          "name": "content",
          "type": "string"
        },
        {
          "internalType": "bool",
          "name": "completed",
          "type": "bool"
        }
      ],
      "payable": false,
      "stateMutability": "view",
      "type": "function"
    },
    {
      "constant": false,
      "inputs": [
        {
          "internalType": "string",
          "name": "_plotNum",
          "type": "string"
        },
        {
          "internalType": "string",
          "name": "_owner",
          "type": "string"
        },
        {
          "internalType": "string",
          "name": "_ownerAadhar",
          "type": "string"
        },
        {
          "internalType": "string",
          "name": "_pincode",
          "type": "string"
        }
      ],
      "name": "createTask",
      "outputs": [],
      "payable": false,
      "stateMutability": "nonpayable",
      "type": "function"
    },
    {
      "constant": false,
      "inputs": [
        {
          "internalType": "uint256",
          "name": "_id",
          "type": "uint256"
        }
      ],
      "name": "toggleCompleted",
      "outputs": [],
      "payable": false,
      "stateMutability": "nonpayable",
      "type": "function"
    }
  ],
  "bytecode": "0x60806040526000805534801561001457600080fd5b506100fb6040518060400160405280600381526020017f31323300000000000000000000000000000000000000000000000000000000008152506040518060400160405280600f81526020017f52616d657368204b2053757265736800000000000000000000000000000000008152506040518060400160405280600a81526020017f31323334353637383930000000000000000000000000000000000000000000008152506040518060400160405280600681526020017f353630303036000000000000000000000000000000000000000000000000000081525061010060201b60201c565b6102c2565b600080546001908101808355604080516060810182528281526020808201898152828401879052938652848152919094208451815591518051929361014d93908501929190910190610227565b5060408201518160020160006101000a81548160ff0219169083151502179055509050507f05d0fb833127fc08168556d0e7ca9554fc3f6bc843b3b7d2bf1c35aea6bab660600054846000604051808481526020018060200183151515158152602001828103825284818151815260200191508051906020019080838360005b838110156101e55781810151838201526020016101cd565b50505050905090810190601f1680156102125780820380516001836020036101000a031916815260200191505b5094505050505060405180910390a150505050565b828054600181600116156101000203166002900490600052602060002090601f016020900481019282601f1061026857805160ff1916838001178555610295565b82800160010185558215610295579182015b8281111561029557825182559160200191906001019061027a565b506102a19291506102a5565b5090565b6102bf91905b808211156102a157600081556001016102ab565b90565b610793806102d16000396000f3fe608060405234801561001057600080fd5b506004361061004c5760003560e01c8063455f50241461005157806372a9f819146100705780638d977672146102a3578063b6cb58a51461034a575b600080fd5b61006e6004803603602081101561006757600080fd5b5035610364565b005b61006e6004803603608081101561008657600080fd5b810190602081018135600160201b8111156100a057600080fd5b8201836020820111156100b257600080fd5b803590602001918460018302840111600160201b831117156100d357600080fd5b91908080601f0160208091040260200160405190810160405280939291908181526020018383808284376000920191909152509295949360208101935035915050600160201b81111561012557600080fd5b82018360208201111561013757600080fd5b803590602001918460018302840111600160201b8311171561015857600080fd5b91908080601f0160208091040260200160405190810160405280939291908181526020018383808284376000920191909152509295949360208101935035915050600160201b8111156101aa57600080fd5b8201836020820111156101bc57600080fd5b803590602001918460018302840111600160201b831117156101dd57600080fd5b91908080601f0160208091040260200160405190810160405280939291908181526020018383808284376000920191909152509295949360208101935035915050600160201b81111561022f57600080fd5b82018360208201111561024157600080fd5b803590602001918460018302840111600160201b8311171561026257600080fd5b91908080601f0160208091040260200160405190810160405280939291908181526020018383808284376000920191909152509295506104c4945050505050565b6102c0600480360360208110156102b957600080fd5b50356105eb565b604051808481526020018060200183151515158152602001828103825284818151815260200191508051906020019080838360005b8381101561030d5781810151838201526020016102f5565b50505050905090810190601f16801561033a5780820380516001836020036101000a031916815260200191505b5094505050505060405180910390f35b61035261069a565b60408051918252519081900360200190f35b61036c6106a0565b60008281526001602081815260409283902083516060810185528154815281840180548651600296821615610100026000190190911695909504601f810185900485028601850190965285855290949193858401939092908301828280156104155780601f106103ea57610100808354040283529160200191610415565b820191906000526020600020905b8154815290600101906020018083116103f857829003601f168201915b50505091835250506002919091015460ff16151560209182015260408083018051159052600085815260018084529190208351815583830151805194955085949193610466938501929101906106c3565b50604091820151600291909101805460ff1916911515919091179055818101518151848152901515602082015281517fe21fa966ca5cd02748c0752352d18c48165e61cb55b4c29cccf924b5a95fcff1929181900390910190a15050565b6000805460019081018083556040805160608101825282815260208082018981528284018790529386528481529190942084518155915180519293610511939085019291909101906106c3565b5060408201518160020160006101000a81548160ff0219169083151502179055509050507f05d0fb833127fc08168556d0e7ca9554fc3f6bc843b3b7d2bf1c35aea6bab660600054846000604051808481526020018060200183151515158152602001828103825284818151815260200191508051906020019080838360005b838110156105a9578181015183820152602001610591565b50505050905090810190601f1680156105d65780820380516001836020036101000a031916815260200191505b5094505050505060405180910390a150505050565b600160208181526000928352604092839020805481840180548651600296821615610100026000190190911695909504601f810185900485028601850190965285855290949193929091908301828280156106875780601f1061065c57610100808354040283529160200191610687565b820191906000526020600020905b81548152906001019060200180831161066a57829003601f168201915b5050506002909301549192505060ff1683565b60005481565b604051806060016040528060008152602001606081526020016000151581525090565b828054600181600116156101000203166002900490600052602060002090601f016020900481019282601f1061070457805160ff1916838001178555610731565b82800160010185558215610731579182015b82811115610731578251825591602001919060010190610716565b5061073d929150610741565b5090565b61075b91905b8082111561073d5760008155600101610747565b9056fea265627a7a72315820b9e2681d40d053ee8e424c862ad96f6c7900deccc5aafe34743348a5bf337ebc64736f6c634300050c0032",
  "source": "pragma solidity ^0.5.0;\n\ncontract TodoList {\n  uint public taskCount = 0;\n\n  struct Task {\n    uint id;\n    string content;\n    bool completed;\n  }\n\n  mapping(uint => Task) public tasks;\n\n  event TaskCreated(\n    uint id,\n    string content,\n    bool completed\n  );\n\n  event TaskCompleted(\n    uint id,\n    bool completed\n  );\n\n  constructor() public {\n    createTask(\"123\",\"Ramesh K Suresh\",\"1234567890\",\"560006\");\n  }\n  function createTask(string memory _plotNum, string memory _owner, string memory _ownerAadhar, string memory _pincode) public {\n    taskCount ++;\n    tasks[taskCount] = Task(taskCount, _owner, false);\n    emit TaskCreated(taskCount, _owner, false);\n  }\n\n  function toggleCompleted(uint _id) public {\n    Task memory _task = tasks[_id];\n    _task.completed = !_task.completed;\n    tasks[_id] = _task;\n    emit TaskCompleted(_id, _task.completed);\n  }\n\n}\n",
  "sourcePath": "C:/Users/Srujan Deshpande/Desktop/Klashning/Blockchain/sih_farmer/contracts/TodoList.sol",
  "compiler": {
    "name": "solc",
    "version": "0.5.12+commit.7709ece9.Emscripten.clang"
  },
  "schemaVersion": "3.0.19",
  "updatedAt": "2020-02-06T05:13:05.522Z",
  "networkType": "ethereum",
  "devdoc": {
    "methods": {}
  },
  "userdoc": {
    "methods": {}
  }
}